:020000040800F2
:1000000000000220995E0008955B0008995B0008DB
:100010009D5B0008A15B0008A55B000800000000D4
:10002000000000000000000000000000A95B0008C4
:10003000AD5B000800000000B15B0008B55B000884
:10004000E95E0008E95E0008E95E0008E95E000874
:10005000E95E0008E95E0008E95E0008E95E000864
:10006000E95E0008E95E0008E95E0008E95E000854
:10007000E95E0008E95E0008E95E0008B95B000877
:10008000C55B0008E95E0008E95E0008E95E00085B
:10009000E95E0008E95E0008E95E0008D15B00083F
:1000A000E95E0008E95E0008E95E0008E95E000814
:1000B000E95E0008D95B0008E95E0008E95E000817
:1000C000E95E0008E95E0008E95E0008E95E0008F4
:1000D000E95E0008E95E0008E95E0008E95E0008E4
:1000E000E95E0008E95E0008E95E0008E95E0008D4
:1000F000E95E0008E95E0008E95E0008E95E0008C4
:10010000E95E0008E95E0008E95E0008E95E0008B3
:10011000E95E0008E95E0008E95E0008E95E0008A3
:10012000E95E0008E95E0008E95E0008E95E000893
:10013000E95E0008E95E0008E95E0008E95E000883
:10014000E95E0008E95E0008E95E0008E95E000873
:10015000E95E0008E95E0008E95E0008E95E000863
:10016000E95E0008E95E0008E95E0008E95E000853
:10017000E95E0008E95E0008E95E00080000000092
:08018000E95E0008E95E0008D9
:1001900010B5054C237833B9044B13B10448AFF3C1
:1001A00000800123237010BDE80100200000000042
:1001B0009869000808B5034B1BB103490348AFF326
:1001C000008008BD00000000EC01002098690008D4
:1001D000034613F8012B002AFBD1181A0138704787
:1001E00001F0FF01102A2BDB10F0070F08D010F8E8
:1001F000013B013A8B422DD010F0070F42B3F6D1EC
:10020000F0B441EA012141EA014122F007047FF004
:1002100000070023F0E80256083C85EA010586EA5B
:10022000010685FA47F5A3FA87F586FA47F6A5FA97
:1002300087F68EB9EED1F0BC01F0FF0102F00702A3
:1002400032B110F8013B013A83EA010313B1F8D14E
:100250000020704701387047002D06BF354603382F
:10026000073815F0010F07D1013015F4807F02BF68
:10027000013015F4C03F0130F0BC0138704700BFB9
:1002800081F0004102E000BF83F0004330B54FEA47
:1002900041044FEA430594EA050F08BF90EA020FB4
:1002A0001FBF54EA000C55EA020C7FEA645C7FEA47
:1002B000655C00F0E2804FEA5454D4EB5555B8BF6A
:1002C0006D420CDD2C4480EA020281EA030382EADB
:1002D000000083EA010180EA020281EA0303362D6D
:1002E00088BF30BD11F0004F4FEA01314FF4801C40
:1002F0004CEA113102D0404261EB410113F0004F52
:100300004FEA03334CEA133302D0524263EB430308
:1003100094EA050F00F0A780A4F10104D5F1200EA6
:100320000DDB02FA0EFC22FA05F2801841F1000101
:1003300003FA0EF2801843FA05F359410EE0A5F1D5
:1003400020050EF1200E012A03FA0EFC28BF4CF006
:10035000020C43FA05F3C01851EBE37101F00045BC
:1003600007D54FF0000EDCF1000C7EEB00006EEBC9
:100370000101B1F5801F1BD3B1F5001F0CD3490853
:100380005FEA30004FEA3C0C04F101044FEA4452AA
:1003900012F5800F80F09A80BCF1004F08BF5FEA31
:1003A000500C50F1000041EB045141EA050130BD11
:1003B0005FEA4C0C404141EB010111F4801FA4F1B4
:1003C0000104E9D191F0000F04BF01460020B1FA09
:1003D00081F308BF2033A3F10B03B3F120020CDA41
:1003E0000C3208DD02F1140CC2F10C0201FA0CF01F
:1003F00021FA02F10CE002F11402D8BFC2F1200C84
:1004000001FA02F120FA0CFCDCBF41EA0C01904039
:10041000E41AA2BF01EB0451294330BD6FEA040482
:100420001F3C1CDA0C340EDC04F11404C4F120026D
:1004300020FA04F001FA02F340EA030021FA04F37F
:1004400045EA030130BDC4F10C04C4F1200220FAD6
:1004500002F001FA04F340EA0300294630BD21FA14
:1004600004F0294630BD94F0000F83F4801306BFDA
:1004700081F480110134013D4EE77FEA645C18BFCE
:100480007FEA655C29D094EA050F08BF90EA020F65
:1004900005D054EA000C04BF1946104630BD91EA5D
:1004A000030F1EBF0021002030BD5FEA545C05D160
:1004B0004000494128BF41F0004130BD14F580049F
:1004C0003CBF01F5801130BD01F0004545F0FE4113
:1004D00041F470014FF0000030BD7FEA645C1ABF48
:1004E000194610467FEA655C1CBF0B46024650EA7F
:1004F000013406BF52EA033591EA030F41F40021AB
:1005000030BD00BF90F0000F04BF0021704730B530
:100510004FF4806404F132044FF000054FF0000105
:1005200050E700BF90F0000F04BF0021704730B5C6
:100530004FF4806404F1320410F0004548BF40429B
:100540004FF000013EE700BF42004FEAE2014FEAF0
:1005500031014FEA02701FBF12F07F4393F07F4FCB
:1005600081F06051704732F07F4208BF704793F0CE
:100570007F4F04BF41F40021704730B54FF46074E1
:1005800001F0004521F000411CE700BF50EA0102E4
:1005900008BF704730B54FF000050AE050EA01028D
:1005A00008BF704730B511F0004502D5404261EBFD
:1005B00041014FF4806404F132045FEA915C3FF43E
:1005C000D8AE4FF003025FEADC0C18BF03325FEADB
:1005D000DC0C18BF033202EBDC02C2F1200300FA8C
:1005E00003FC20FA02F001FA03FE40EA0E0021FAB1
:1005F00002F11444BDE600BF70B54FF0FF0C4CF49F
:10060000E06C1CEA11541DBF1CEA135594EA0C0F50
:1006100095EA0C0F00F0DEF82C4481EA030621EA8B
:100620004C5123EA4C5350EA013518BF52EA0335C6
:1006300041F4801143F4801338D0A0FB02CE4FF078
:100640000005E1FB02E506F00042E0FB03E54FF0A8
:100650000006E1FB03569CF0000F18BF4EF0010EA0
:10066000A4F1FF04B6F5007F64F5407404D25FEA9C
:100670004E0E6D4146EB060642EAC62141EA55514F
:100680004FEAC52040EA5E504FEACE2EB4F1FD0C91
:1006900088BFBCF5E06F1ED8BEF1004F08BF5FEA0F
:1006A000500E50F1000041EB045170BD06F00046C1
:1006B00046EA010140EA020081EA0301B4EB5C046E
:1006C000C2BFD4EB0C0541EA045170BD41F4801166
:1006D0004FF0000E013C00F3AB8014F1360FDEBF8B
:1006E000002001F0004170BDC4F10004203C35DA67
:1006F0000C341BDC04F11404C4F1200500FA05F3EA
:1007000020FA04F001FA05F240EA020001F000428A
:1007100021F0004110EBD37021FA04F642EB060100
:100720005EEA430E08BF20EAD37070BDC4F10C042A
:10073000C4F1200500FA04F320FA05F001FA04F2EE
:1007400040EA020001F0004110EBD37041F10001DA
:100750005EEA430E08BF20EAD37070BDC4F12005E5
:1007600000FA05F24EEA020E20FA04F301FA05F24D
:1007700043EA020321FA04F001F0004121FA04F2F5
:1007800020EA020000EBD3705EEA430E08BF20EAC5
:10079000D37070BD94F0000F0FD101F000464000FF
:1007A00041EB010111F4801F08BF013CF7D041EA81
:1007B000060195F0000F18BF704703F00046520085
:1007C00043EB030313F4801F08BF013DF7D043EA56
:1007D0000603704794EA0C0F0CEA135518BF95EA0C
:1007E0000C0F0CD050EA410618BF52EA4306D1D193
:1007F00081EA030101F000414FF0000070BD50EAB2
:10080000410606BF1046194652EA430619D094EA3B
:100810000C0F02D150EA013613D195EA0C0F05D125
:1008200052EA03361CBF104619460AD181EA030179
:1008300001F0004141F0FE4141F470014FF0000031
:1008400070BD41F0FE4141F4780170BD70B54FF0CC
:10085000FF0C4CF4E06C1CEA11541DBF1CEA13554C
:1008600094EA0C0F95EA0C0F00F0A7F8A4EB05042E
:1008700081EA030E52EA03354FEA013100F0888025
:100880004FEA03334FF0805545EA131343EA1263EE
:100890004FEA022245EA111545EA10654FEA0026A3
:1008A0000EF000419D4208BF964244F1FD0404F55C
:1008B000407402D25B084FEA3202B61A65EB0305B8
:1008C0005B084FEA32024FF480104FF4002CB6EB75
:1008D000020E75EB030E22BFB61A754640EA0C00F5
:1008E0005B084FEA3202B6EB020E75EB030E22BF35
:1008F000B61A754640EA5C005B084FEA3202B6EB76
:10090000020E75EB030E22BFB61A754640EA9C0034
:100910005B084FEA3202B6EB020E75EB030E22BF04
:10092000B61A754640EADC0055EA060E18D04FEAC2
:10093000051545EA16754FEA06164FEAC30343EA62
:1009400052734FEAC2025FEA1C1CC0D111F4801F2F
:100950000BD141EA00014FF000004FF0004CB6E728
:1009600011F4801F04BF01430020B4F1FD0C88BFC7
:10097000BCF5E06F3FF6AFAEB5EB030C04BFB6EBD2
:10098000020C5FEA500C50F1000041EB045170BDC5
:100990000EF0004E4EEA113114EB5C04C2BFD4EBF2
:1009A0000C0541EA045170BD41F480114FF0000E76
:1009B000013C90E645EA060E8DE60CEA135594EAF2
:1009C0000C0F08BF95EA0C0F3FF43BAF94EA0C0FF5
:1009D0000AD150EA01347FF434AF95EA0C0F7FF46A
:1009E00025AF104619462CE795EA0C0F06D152EABE
:1009F00003353FF4FDAE1046194622E750EA4106A2
:100A000018BF52EA43067FF4C5AE50EA41047FF4B2
:100A10000DAF52EA43057FF4EBAE12E74FF0FF3C17
:100A200006E000BF4FF0010C02E000BF4FF0010CE8
:100A30004DF804CD4FEA410C7FEA6C5C4FEA430C61
:100A400018BF7FEA6C5C1BD001B050EA410C0CBFB0
:100A500052EA430C91EA030F02BF90EA020F002012
:100A6000704710F1000F91EA030F58BF994208BF79
:100A700090422CBFD8176FEAE37040F00100704736
:100A80004FEA410C7FEA6C5C02D150EA013C07D18D
:100A90004FEA430C7FEA6C5CD6D152EA033CD3D0D8
:100AA0005DF8040B704700BF8446104662468C46D2
:100AB0001946634600E000BF01B5FFF7B7FF002805
:100AC00048BF10F1000F01BD4DF808EDFFF7F4FF2E
:100AD0000CBF012000205DF808FB00BF4DF808EDB9
:100AE000FFF7EAFF34BF012000205DF808FB00BFDC
:100AF0004DF808EDFFF7E0FF94BF012000205DF8FE
:100B000008FB00BF4DF808EDFFF7CEFF94BF0120B2
:100B100000205DF808FB00BF4DF808EDFFF7C4FFAB
:100B200034BF012000205DF808FB00BF4FEA410CF4
:100B30007FEA6C5C02D150EA013C0AD14FEA430CD7
:100B40007FEA6C5C02D152EA033C02D14FF0000014
:100B500070474FF0010070474FEA410212F5001252
:100B600015D211D56FF47873B3EB625212D94FEAF4
:100B7000C12343F0004343EA505311F0004F23FADE
:100B800002F018BF404270474FF00000704750EA33
:100B9000013005D111F0004008BF6FF000407047F0
:100BA0004FF00000704700BF70B50D4E0D4CA41BF8
:100BB000A4100025A54209D10B4E0C4C05F0ECFE0B
:100BC000A41BA4100025A54205D170BD56F8253000
:100BD00098470135EEE756F8253098470135F2E79A
:100BE0000C6E00080C6E00080C6E0008106E0008F9
:100BF00002440346934200D1704703F8011BF9E712
:100C00002DE9FF4755EC104B0D9FDDF830A0002D6E
:100C10000E4691461946B8BF22462B4627F02007BC
:100C2000BBBF05F100431D4600232D23B8BF14466A
:100C3000462F0B7004D0452F00D10136022100E071
:100C4000032103AB019302AB00933246534645ECBC
:100C5000104B00F0BDFC472F804602D119F0010F68
:100C600026D0462F08EB060911D198F80030302B1A
:100C70000AD10022002320462946FFF725FF18B994
:100C8000C6F10106CAF80060DAF800309944002283
:100C9000002320462946FFF717FF38B93022039B6F
:100CA0004B4505D2591C03911A70F8E7CDF80C900A
:100CB000039B0E9AA3EB08034046136004B0BDE803
:100CC000F087F7B500290446BABF49422D232B23EC
:100CD000092904F8022B437020DD0DF107031F469C
:100CE0000A2691FBF6F506FB15113031092D03F8A4
:100CF000011C03F1FF32294609DC3031023B02F8C6
:100D0000011CBB42224604D3101A03B0F0BD1346A7
:100D1000E7E713F8012B04F8012BF2E7302319441D
:100D20008370021DC170EFE72DE9F04F8DB00C46C6
:100D3000DDF8588016461F46054601F001FA0368A3
:100D400004931846FFF744FA00230A93D8F80030BA
:100D50000590073323F0070303F1080294F818A065
:100D6000D4F800B0C8F80020D3E90023C4E9122366
:100D7000D4E9128929F000430793CDF818804FF089
:100D8000FF32A74BDDE90601FFF7D0FE70BB4FF045
:100D9000FF32A34BDDE90601FFF7AAFE30BB0022BC
:100DA000002340464946FFF799FE10B12D2384F8F1
:100DB00043309C4A9C4BBAF1470F8CBF90469846F3
:100DC00003232BF00402236122604FF000090097F7
:100DD00033460BAA2146284600F0E6F9013040F0E0
:100DE0008D804FF0FF300DB0BDE8F08F42464B468E
:100DF00040464946FFF79AFE10B18C4A8C4BDAE721
:100E000061684B1C4BF480620AA83ED106236360E4
:100E10000023CDE9020309AB009349EC108B0DF1DF
:100E200023032260CDF804A061682846FFF7E8FE9E
:100E30000AF0DF03472B804609D1099BD81C02DB4F
:100E40006268934247DDAAF1020A5FFA8AFABAF1B0
:100E5000650F099924D80139524604F150000991CF
:100E6000FFF72FFF0A9A1318012A8146236102DC3B
:100E70002268D10701D5013323619DF82330002B6F
:100E8000A5D02D2384F84330A1E7BAF1670F00F015
:100E90007781BAF1470FBBD10029B9D10123B6E759
:100EA000BAF1660F19D1002963680CDD216113B90D
:100EB0002268D20702D501330B442361099BA36545
:100EC0004FF00009D9E713B92268D00701D50233E2
:100ED000F3E70123F1E74FF0670ADDE909329342B6
:100EE00005DB22682361D107E8D50133E5E7002B54
:100EF000D4BFC3F1020301231344DEE723685A057C
:100F000007D42369424631462846B84701302BD1E1
:100F100067E7BAF1650F40F2DC8000220023D4E9D4
:100F20001201FFF7D1FD002833D00123414A314699
:100F30002846B84701303FF454AFDDE909239A420F
:100F400002DB2368D8070FD5DDE9042331462846A4
:100F5000B84701303FF445AF4FF0000804F11A09DB
:100F60000A9B013B434509DC23689B0700F1038191
:100F7000E0680B9B9842B8BF184634E701234A4605
:100F800031462846B84701303FF42BAF08F101083D
:100F9000E6E7099B002B2BDC0123264A3146284635
:100FA000B84701303FF41DAF099B23B90A9B13B921
:100FB0002368D907D8D5DDE9042331462846B84748
:100FC00001303FF40EAF4FF0000904F11A0A099BFB
:100FD0005B424B4501DC0A9B94E7012352463146B4
:100FE0002846B84701303FF4FCAE09F10109EEE7AD
:100FF0000A9AA36D9A42A8BF1A46002A914607DDB5
:101000001346314642462846B84701303FF4E9AE20
:1010100004F11A034FF0000B29EAE979069315E071
:10102000FFFFEF7F506A00084C6A0008586A00080A
:10103000546A00085C6A00080123069A3146284673
:10104000B84701303FF4CDAE0BF1010BD4F858A0F6
:10105000AAEB09035B45EFDCDDE909239A42D044A2
:1010600015DB2368DA0712D40A9B0999A3EB0A025D
:10107000A3EB010A9245A8BF9246BAF1000F0EDC1D
:101080004FF000082AEAEA7A04F11A0919E0DDE9CA
:10109000042331462846B8470130E5D1A1E653463E
:1010A000424631462846B8470130E9D199E6012346
:1010B0004A4631462846B84701303FF492AE08F11F
:1010C0000108DDE909239B1AA3EB0A034345EEDC83
:1010D0004AE70A9A012A01DCDB073AD50123424696
:1010E00031462846B84701303FF47BAEDDE90423A2
:1010F00031462846B847013008F101083FF471AE87
:101100000A9B002203F1FF3AD4E912010023FFF702
:10111000DBFCC8B95346424631462846B847013041
:101120000ED15EE60123524631462846B8470130CB
:101130003FF457AE08F101080A9B013B4345F1DC3F
:101140004B4604F15002DEE64FF0000804F11A0AA3
:10115000F2E70123DFE701234A4631462846B84734
:1011600001303FF43EAE08F10108E3680B9A9B1A88
:101170004345F0DCFCE64FF0000804F11909F4E700
:1011800000293FF48BAE0023CDE9020309AB0093A5
:1011900049EC108B2260CDF804A00DF12303284602
:1011A000FFF72EFD804648E62DE9F04791461F46A1
:1011B0008A680B69DDF820809342B8BF1346C9F8EE
:1011C000003091F8432006460C4612B10133C9F8AD
:1011D00000302368990642BFD9F800300233C9F8BD
:1011E0000030256815F0060507D104F1190AE368F7
:1011F000D9F800209B1AAB4228DC94F843302268CF
:10120000003318BF012392062DD404F1430239465E
:101210003046C047013020D02368E568D9F8002067
:1012200003F00603042B08BFAD1AA36822690CBFA4
:1012300025EAE57500259342C4BF9B1AED184FF0CF
:1012400000091A344D451AD1002008E00123524606
:1012500039463046C047013003D14FF0FF30BDE87A
:10126000F0870135C3E7E1185A1C302081F84300AC
:10127000224494F8451082F843100233C5E7012355
:10128000224639463046C0470130E6D009F101090F
:10129000D8E700002DE9F04301F1430C0C46097E2C
:1012A00085B06E291746064698460C9A00F0B38022
:1012B00022D8632936D00AD8002900F0B9805829ED
:1012C00000F0838004F1420584F8421032E0642982
:1012D00001D06929F6D120681368050603F10401DD
:1012E0002AD51B681160002B03DA2D225B4284F89B
:1012F00043206F480A2239E0732900F09D8008D806
:101300006F2920D07029DDD1236843F020032360AA
:1013100003E0752917D07829D4D1782384F8453093
:10132000644855E01368191D1B68116004F14205FB
:1013300084F8423001238CE01B68116010F0400FEC
:1013400018BF1BB2CFE713682568181D1060280668
:1013500001D51B6802E06806FBD51B8854486F293D
:1013600014BF0A220822002184F843106568A56092
:10137000002DC0F29580216821F004012160002B2E
:101380003DD1002D40F08E806546082A0BD12368A0
:10139000DB0708D5236962689A42DEBF302305F86F
:1013A000013C05F1FF35ACEB05032361CDF800806E
:1013B0003B4603AA21463046FFF7F6FE01304DD1E9
:1013C0004FF0FF3005B0BDE8F083394884F8451090
:1013D000136821681D1D1B6815600A060BD5CA0716
:1013E00044BF41F0200121601BB9226822F0200295
:1013F00022601022B7E74D0648BF9BB2EFE7654673
:10140000B3FBF2F102FB1133C35C05F8013D0B465F
:101410000029F5D1B9E7136825686169181D1060C6
:1014200028061B6801D5196002E06A06FBD5198001
:10143000002323616546B9E71368191D11601D6813
:10144000626800212846FEF7CBFE08B1401B6060B1
:1014500063682361002384F84330A7E723692A46A1
:1014600039463046C0470130AAD023689B0713D4C1
:10147000E068039B9842B8BF1846A3E701234A4699
:1014800039463046C04701309AD00135E368039AA7
:101490009B1AAB42F2DCEBE7002504F11909F5E7F2
:1014A000002BACD1037884F8423004F142056CE79C
:1014B0005E6A00086F6A00082DE9F74F03690C693E
:1014C000A3428046C0F28280013C01F114074FEA3A
:1014D000840C00F1140657F8245056F8240006EB4B
:1014E0000C03013507EB0C090193B0FBF5F595B33F
:1014F0004FF0000A3846B646D34650F8042B93B254
:1015000005FB03A34FEA134A9BB2ABEB0303120C98
:10151000DEF800B005FB02A213FA8BF34FEA124A81
:101520001FFA82FBDEF80020CBEB124202EB2342D3
:101530009BB243EA024381454FEA224B4EF8043BFB
:10154000DBD256F80C3033B9019B043B9E421A465D
:1015500030D3C8F81040404601F028F8002825DBB9
:10156000013530464FF0000C57F8042BD0F800E05E
:1015700093B2ACEB0303120C13FA8EF3C2EB1E42D0
:1015800002EB23429BB243EA0243B9454FEA224CA5
:1015900040F8043BE8D256F8242006EB84032AB92D
:1015A000043B9E421A460BD3C8F81040284603B0AD
:1015B000BDE8F08F1268043B002ACAD1013CC5E7A0
:1015C0001268043B002AEFD1013CEAE70020EEE775
:1015D0002DE9F04F57EC106B97B0456A0691044621
:1015E0000B921293DDF88080CDE900673DB91020A1
:1015F00000F0B4FD6062C0E901550560C560636A32
:10160000196851B15A684A60012393408B602046A3
:1016100000F0EBFD636A00221A603B1EBBBF23F0A3
:101620000043019300230122ACBFC8F80030C8F882
:101630000020AF4BDDF8048033EA080314D1129A7E
:1016400042F20F731360009B23B9C8F31300002804
:1016500000F04285219BDFF8ACB2002B00F04485FE
:101660000BF1030300F03EBDDDE90067002200231B
:1016700030463946FFF728FA814668B1129A0123AD
:101680001360219B002B00F024859A4B219A03F1D3
:10169000FF3B136000F028BD14AA15A947EC106B9E
:1016A000204600F0FAFFC8F30A550490002D7CD0C4
:1016B000C7F3130343F07F5BB2464BF4401BA5F224
:1016C000FF35CDF84C9000228B4B50465946FEF723
:1016D000DBFD81A3D3E90023FEF78EFF80A3D3E9CE
:1016E0000023FEF7D3FD064628460F46FEF71AFFF5
:1016F0007DA3D3E90023FEF77FFF02460B46304669
:101700003946FEF7C3FD06460F46FFF725FA0022CD
:101710008246002330463946FFF7E0F948B150468B
:10172000FEF700FF32463B46FFF7CEF908B90AF153
:10173000FF3ABAF1160F59D8704901EBCA01DDE939
:101740000023D1E90001FFF7E7F9002850D00AF1A2
:10175000FF3A00230F93149B5D1BB5F1010849BFAD
:10176000C5F10103002305934FF0000858BF05930E
:10177000BAF1000F3EDB0023D044CDF838A0079328
:10178000069B092B00F29080052BC4BF043B0693F7
:10179000069BA3F10203CCBF00250125032B00F219
:1017A0008F80DFE803F07D7F3171DDE914531D4444
:1017B00005F23240202813DDC0F14000009B08FAFA
:1017C00000F805F2124023FA00F048EA0000FEF7A4
:1017D00099FE01238246A1F1F87B013D139372E744
:1017E000009BC0F1200003FA00F0F0E70123B1E70D
:1017F0000F90B0E7059BA3EB0A030593CAF1000322
:10180000079300230E93BBE701230A930B9B002B46
:1018100059DD02939946666A00227260042202F141
:1018200014009842716853D9204600F0AAFC636AFC
:101830003060B9F10E0FD3F800B000F2E680002D51
:1018400000F0E3809DED007BBAF1000F8DED107B81
:1018500074DD2A4A0AF00F0302EBC30393ED007B09
:101860004FEA2A16F0068DED087B65D5244BDDE99D
:101870001001D3E90823FEF7E9FFCDE9000106F0E6
:101880000F0603251E4F4CE001230A930B9B534484
:1018900003F1010902934B46012BB8BF0123BAE7BC
:1018A0000023B2E70023F0E70125002306930A9501
:1018B0004FF0FF3302939946002212230B92AAE7BE
:1018C00001230A93F4E70123029399461A46F5E7A8
:1018D000013171605200A2E761436F63A787D23F75
:1018E000B3C8608B288AC63FFB799F501344D33F0F
:1018F0000000F07F5D6A00080000F83FB86A000849
:10190000906A0008896A0008F10708D5DDE9080136
:10191000D7E90023FEF770FECDE908010135761006
:101920000837002EF0D1DDE90823DDE90001FEF7DC
:101930008DFFCDE900011AE00225A3E700F0A080A9
:10194000CAF100069F4BA04F06F00F0203EBC20343
:10195000D3E90023DDE91001FEF74EFECDE90001D9
:10196000361100230225002E7FD1002BE1D10F9BE1
:10197000002B00F08780DDE900670022934B3046A2
:101980003946FFF7ABF800287CD0B9F1000F79D0C9
:10199000029B002B35DD0AF1FF3308933946002204
:1019A0008B4B3046FEF728FECDE90001029F013542
:1019B0002846FEF7B7FDDDE90023FEF71DFE0022F5
:1019C000844BFEF763FC0546A1F15076002F5DD1F4
:1019D0000022814BDDE90001FEF756FC2A46334622
:1019E000CDE90001FFF798F8002840F088822A46E8
:1019F00006F10043DDE90001FFF770F8002840F030
:101A00007C82DDE91023CDE90023159B002BC0F279
:101A10005081BAF10E0F00F34C816A4B03EBCA03FD
:101A200093ED007B0B9B002B8DED027B80F2D88029
:101A3000B9F1000F00F3D48040F05E820022664BC3
:101A400051EC170BFEF7D8FDDDE90023FFF75AF83C
:101A50004F464E46002840F0348231230BF10105F9
:101A60008BF800300AF1010A2FE2F20705D5D7E919
:101A70000023FEF7C1FD013501237610083772E718
:101A8000022574E7CDF820A04F4691E74D4B03EBBC
:101A9000C70353E902010A9B002B47D002460B46BD
:101AA00000204E49FEF7D2FE2A463346FEF7ECFBF5
:101AB000CDE90C015D46DDE90001FFF74DF8064672
:101AC000FEF730FD02460B46DDE90001FEF7DCFBC8
:101AD000303605F8016BDDE90C23CDE90001FEF796
:101AE000FDFF002863D1DDE9002300203749FEF720
:101AF000CBFBDDE90C23FEF7F1FF002840F0B780B7
:101B0000A5EB0B039F427FF77CAF0022304BDDE952
:101B10000C01FEF771FD0022CDE90C012C4BDDE933
:101B20000001FEF769FDCDE90001C4E72A4633460E
:101B3000FEF762FDCDE90C010BEB07055E46DDE922
:101B40000001FFF709F80746FEF7ECFC30370246C4
:101B50000B46DDE90001FEF797FB06F8017BAE427C
:101B6000CDE900014FF0000226D11C4BDDE90C014C
:101B7000FEF78CFB02460B46DDE90001FEF7CCFFC9
:101B8000002874D1DDE90C2300201449FEF77CFB0A
:101B900002460B46DDE90001FEF7A0FF00283FF4F6
:101BA00030AF15F8013C302B05F1FF3202D0DDF8E3
:101BB00020A04AE01546F4E7054BFEF71DFDCDE9F0
:101BC0000001BCE7B86A0008906A00080000F03F16
:101BD0000000244000001C40000014400000E03FD2
:101BE000DDE900675D46DDE9022330463946FEF750
:101BF0002DFEFEF7B1FF8046FEF794FCDDE90223DF
:101C0000FEF7FAFC02460B463046394608F130062C
:101C1000FEF73AFB05F8016BA5EB0B06B145024652
:101C20000B4639D1FEF732FBDDE9022306460F46AB
:101C3000FEF772FFC8B9DDE9022330463946FEF7E8
:101C400043FF10B118F0010F0FD10499204600F0A6
:101C5000CCFA0023129A2B700AF101031360219B26
:101C6000002B00F041821D603EE2CDF820A015F867
:101C7000012C392A05F1FF3308D19B450AD1089B75
:101C80000133089330238BF800305B461A78013219
:101C90001A708CE71D46EAE700229B4BFEF7ACFC6E
:101CA0000022002306460F46FEF70EFF00289AD0BA
:101CB000CBE70A9A002A00F08B80069A012A6EDC94
:101CC000139A002A67D003F23343079F059D059AB4
:101CD00001211A4420460592984400F026FB06464E
:101CE000002D0CDDB8F1000F09DD4545059A2B46A6
:101CF000A8BF4346D21A0592ED1AA8EB0308079B2A
:101D0000EBB10A9B002B67D08FB131463A46204693
:101D100000F0AAFB049A01460646204600F00EFB9E
:101D200004990890204600F060FA089B0493079BF2
:101D3000DA1B04D00499204600F096FB04900121A0
:101D4000204600F0F2FA0E9B0746002B00F0D081EF
:101D50001A460146204600F087FB069B012B0746EA
:101D600040DC009B002B39D1019BC3F31303002BF4
:101D700036D1019B23F000431B0D1B052BB1059BA6
:101D80000133059308F10108012307930E9B002BF3
:101D90002AD1012030E0149BC3F1360395E7079B5D
:101DA00009F1FF37BB42BFBF079B0797FA1A0E9B8B
:101DB000BBBF9B180E93DF1B0027B9F1000FB5BF07
:101DC000059B059DA3EB09054B46B8BF00237EE7A5
:101DD000079F059D0A9E83E7079AABE70023D4E798
:101DE000009BD2E7002307933B6907EB8303186945
:101DF00000F04DFAC0F12000404410F01F0047D021
:101E0000C0F12003042B3BDD059BC0F11C00034403
:101E1000059305448044059B002B05DD1A46049973
:101E2000204600F06FFB0490B8F1000F05DD394645
:101E30004246204600F066FB07460F9B53B33946E7
:101E4000049800F0B3FB002824DA00230A22049946
:101E5000204600F0E1F90A9B04900AF1FF3A002BBA
:101E600000F04D81002331460A22204600F0D4F9CB
:101E7000029B002B06464FDC069B022B4CDD11E03B
:101E8000C9D0059A1C331A4405921D449844C2E7F0
:101E90000346F6E7B9F1000F38DC069B022B35DD6F
:101EA000CDF80890029B63B939460522204600F020
:101EB000B3F901460746049800F078FB00283FF785
:101EC000CCAD0B9B5D466FEA030A4FF00009394623
:101ED000204600F08AF9002E3FF4B7AEB9F1000FAA
:101EE00005D0B14503D04946204600F07EF9314681
:101EF000204600F07AF9A8E600273E46E1E7DDF843
:101F000020A03E46A9E500BF000024400A9BCDF872
:101F10000890002B00F0FA80002D05DD31462A469E
:101F2000204600F0EFFA0646079B002B4CD0716864
:101F3000204600F026F9326902320546920006F189
:101F40000C010C3000F012F901222946204600F065
:101F5000D9FA009BCDF814B003F00103B146079302
:101F6000064639460498FFF7A7FA4946054600F1A8
:101F70003008049800F01AFB32460090394620469B
:101F800000F02EFBC368024603BB0146089004988C
:101F900000F00CFB089A034611462046089300F017
:101FA00024F9089BA3B9069A92B9079A82B9B8F1A5
:101FB000390F29D0009B002B01DD05F13108059B6D
:101FC0005D1C83F8008082E73046C2E70123E3E727
:101FD000009A002A04DB25D1069A1ABB079A0ABB8D
:101FE000002BECDD01220499204600F08BFA3946E3
:101FF000049000F0DBFA002803DCE0D118F0010FB8
:10200000DDD0B8F1390FD8D1059B059A5D1C392375
:10201000137015F8013C392B05F1FF324FD0013315
:10202000137054E7059A002B02F1010506DDB8F1A3
:10203000390FE9D008F10108059BC2E7029A05F8BB
:10204000018CA5EB0B03934221D000230A220499B3
:10205000204600F0E1F8B14504904FF000034FF046
:102060000A024946204605D100F0D6F881460646C8
:10207000059576E700F0D0F83146814600230A2224
:10208000204600F0C9F80646F2E74FF000090122A9
:102090000499204600F036FA3946049000F086FA9A
:1020A0000028B6DC02D118F0010FB2D115F8013CBE
:1020B000302B05F1FF327FF40AAF1546F6E7934562
:1020C00005D131230AF1010A8BF80030FFE61546ED
:1020D0009FE7DFF864B007E0219BDFF860B01BB139
:1020E0000BF10803219A1360584617B0BDE8F08F32
:1020F000069B012B7FF735AE0E9B079349E6029BAB
:10210000002B03DC069B022B3FF7CCAE5D46394625
:102110000498FFF7D1F900F1300805F8018B029A15
:10212000A5EB0B039A42B0DD00230A220499204656
:1021300000F072F80490EAE75C6A0008806A000820
:10214000044B1B68186A044B002808BF1846F0307F
:10215000704700BF0C00002070000020024B0146B9
:10216000186800F045BB00BF0C00002010B5431EEE
:102170000A44914200D110BD11F8014B03F8014F00
:10218000F7E770B5456A04460E463DB91020FFF7E3
:10219000E5FF6062C0E901550560C560656AEB68EE
:1021A00083B1636ADB6853F82600B8B9012101FAEC
:1021B00006F56A1D9200204600F0BEFA60B1C0E943
:1021C00001650EE021220421204600F0B5FA636A81
:1021D000E860DB68002BE4D1002070BD026843F8A2
:1021E00026200023C0E90333F7E770B5446A0646AA
:1021F0000D463CB91020FFF7B1FF7062C0E9014401
:102200000460C4603DB1736A6A68DB6853F82210E9
:10221000296043F8225070BD2DE9F0410D691F4639
:1022200006460C4601F1140C0023DCF8000081B2D4
:1022300002FB01710F0C000C02FB007089B201332C
:1022400001EB00419D424FEA10474CF8041BECDCC7
:10225000D7B1A368AB4212DC616830460131FFF7A9
:1022600090FF2269023204F10C01804692000C308A
:10227000FFF77CFF21463046FFF7B7FF444604EBEB
:10228000850301355F6125612046BDE8F081020CC0
:1022900012040346B2B90304102013F07F4F04BFA9
:1022A0001B02083013F0704F04BF1B01043013F001
:1022B000404F04BF9B000230002B06DB5B0003D5C0
:1022C000013070470020E8E720207047036813F0D2
:1022D000070201460BD0DA0723D4980749BF5B08F1
:1022E0009B0801200B605CBF0B600220704798B216
:1022F000A8B91B0C102013F0FF0F04BF1B0A0830F5
:102300001A0704BF1B0904309A0704BF9B08023058
:10231000DA0702D45B0806D001300B607047104624
:10232000E9E7002070472020704710B50C460121D6
:10233000FFF727FF01224461026110BD2DE9F74F2D
:1023400014460A6923699A42B8BF0B468846BCBF47
:10235000A0461C46D8F81070D4F81090D8F8083071
:10236000D8F8041007EB0906B342B8BF0131FFF7F4
:1023700008FF00F1140505EB860E2B46002273457D
:1023800016D304F1140208F1140102EB890301EBE6
:1023900087070093009B019293420CD8002E03DD27
:1023A0005EF8043D002B5DD0066103B0BDE8F08F00
:1023B00043F8042BE3E7B2F800B0BBF1000F23D0E1
:1023C0008946AC464FF0000859F8044BDCF800A0F1
:1023D000A3B21FFA8AFA0BFB03A34FEA144ADCF8F4
:1023E000004043444FEA14480BFB0A8404EB1344B7
:1023F000E2469BB243EA04434F454FEA14484AF889
:10240000043B2BD8CCF80480019BB3F802A0043223
:10241000BAF1000F20D02B688946A8464FF0000B78
:10242000B9F800C0B8F802400AFB0C445C44C4464A
:102430009BB243EA04434CF8043B59F8043BB8F818
:1024400004B01B0C0AFB03B303EB14434F454FEAE4
:10245000134B05D8C8F8043004359BE7D446B3E7DE
:10246000E046DDE7013E99E72DE9F843154612F015
:10247000030206460F4607D0013A214C002354F8C8
:102480002220FFF7C9FE0746AD1035D0746A3CB96B
:102490001020FFF763FE7062C0E901440460C4606D
:1024A000D6F82480D8F808404CB940F27121304663
:1024B000FFF73BFF0023C8F80800044603604FF015
:1024C0000008EB070AD5394622463046FFF736FFAB
:1024D000394681463046FFF788FE4F466D100BD0D7
:1024E000206838B9224621463046FFF727FF206092
:1024F000C0F800800446E4E73846BDE8F88300BF32
:10250000806B00082DE9F0470C464FEA621A2369F8
:1025100049680AEB0309A3680746164609F1010555
:10252000AB4232DB3846FFF72CFE0023804600F139
:1025300014011A4653452BDB20692AEAEA7A04F192
:10254000140316F01F0201EB8A0103EB800C25D067
:10255000C2F1200E00201E688A46964030434AF899
:10256000040B53F8040B9C4520FA0EF014D8486075
:1025700008B109F10205013D3846C8F8105021465E
:10258000FFF733FE4046BDE8F08701315B00C7E747
:1025900041F823200133CDE75146DCE7043953F8F5
:1025A000042B41F8042F9C45F9D8E4E703690A6934
:1025B0009B1A30B50CD19200143014318418114498
:1025C00054F8045D51F8042D954203D005D301233E
:1025D000184630BDA042F3D3FAE74FF0FF33F7E7D8
:1025E0002DE9F0470D460746114628461446FFF7E9
:1025F000DDFF061E08D131463846FFF7C2FD012334
:10260000C0E90436BDE8F087A4BF23462C4638460F
:102610006168A6BF1D4600260126FFF7B2FD2B69A3
:10262000C660266905F1140904F1140202EB86075D
:1026300009EB830800F114054FF0000E52F804ABCB
:1026400059F8044B1EFA8AF1A3B2C91A230CC3EB42
:102650001A4303EB214389B24FEA234EC84541EAAE
:102660000343944645F8043BE8D8BC4504D355F8E9
:10267000043D83B10661C5E75CF8041B1EFA81F3D3
:102680001A1402EB11429BB243EA02434FEA224E74
:1026900045F8043BE9E7013EE9E72DE9F7430E463B
:1026A000012159EC108B1546FFF76BFDC9F30A5455
:1026B0000746C9F3130334BB0193B8F1000327D0D5
:1026C00002A840F8083DFFF701FE0099F0B1019A19
:1026D000C0F1200302FA03F30B43C2407B61019275
:1026E000019BBB61002B14BF022101213961C4B1E0
:1026F000A4F2334404443460C0F135002860384605
:1027000003B0BDE8F08343F48013D5E77961E7E7D0
:1027100001A8FFF7DBFD019B7B61012139612030BE
:10272000E5E707EB8103A0F2324030601869FFF75C
:10273000AEFDC0EB4110E1E738B502FB01F42146E4
:1027400000F056F8054618B122460021FEF750FA6F
:10275000284638BD38B50546002945D051F8043C17
:102760000C1F002BB8BFE41800F0BEF81F4A136816
:10277000104633B9636014602846BDE8384000F065
:10278000B4B8A3420CD921686218934204BF1A68F6
:102790005B68636004BF521822600460ECE7134674
:1027A0005A680AB1A242FAD919685818A0420BD146
:1027B00020680144581882421960DDD110685268BF
:1027C0005A6001441960D7E702D90C232B60D3E784
:1027D000206821188A4204BF11685268626004BFF1
:1027E000091821605C60C7E738BD00BF28020020DF
:1027F00070B5CD1C25F0030508350C2D38BF0C2510
:10280000002D064601DBA94203D90C2333600020CA
:1028100070BD00F069F8214A1468214691B9204C36
:1028200023681BB9304600F03DF820602946304649
:1028300000F038F8431C24D10C233360304600F0FC
:1028400054F8E4E70B685B1B18D40B2B0FD90B6013
:10285000CD50CC18304600F048F804F10B00231D91
:1028600020F00700C31AD3D05A42E250D0E78C427E
:102870004B6816BF636013600C46EBE70C46496873
:10288000CCE7C41C24F00304A04205D0211A304632
:1028900000F008F80130CFD02560DBE728020020E7
:1028A0002C02002038B5064C00230546084623605C
:1028B00000F030F9431C02D1236803B12B6038BD0E
:1028C000E002002082B001B901A942B14BB11378F6
:1028D0000B601278101C18BF012002B07047104620
:1028E000FBE76FF00100F8E77047704749B1FF2A36
:1028F00085BF8A2303600A704FF0FF3098BF012024
:1029000070470846704700000A4B10B50446186827
:1029100018B183690BB903F02FFB132C07D80648B5
:1029200050F83430013302D000EBC40010BD002059
:10293000FCE700BF0C00002040020020F8B5431C5B
:10294000054609D103F0D2FA132406460027204693
:102950003946ABBE044634602846F8BDF8B5054696
:1029600003F0C4FA13240646002720463946ABBEBE
:10297000044634602846F8BD30B585B0CDE9010184
:102980000392062401AD20462946ABBE04462046EC
:10299000FFF7D4FF05B030BD70B50E461546FFF702
:1029A000B3FF044630B903F0A1FA092303604FF0E6
:1029B000FF3070BD2A4631460068FFF7DDFF431C3B
:1029C0001FBF6368281A1B186360F2E7F7B50C464F
:1029D0001646FFF799FF054640B903F087FA092329
:1029E00003604FF0FF34204603B0F0BD022E03D940
:1029F00003F07CFA1623F3E7012E12D14368E418A2
:102A0000F6D42B680A26CDE900346F4630463946A5
:102A1000ABBE06463046FFF791FF0028E1DB6C6055
:102A2000E1E7022EEDD102AF036847F8083D0C261E
:102A300030463946ABBE06463046FFF77FFF431CA3
:102A4000CFD00444DDE7FFF7C1BF30B585B0CDE995
:102A500001010392052401AD20462946ABBE044680
:102A60002046FFF76BFF05B030BD70B50E4615462A
:102A7000FFF74AFF044630B903F038FA0923036030
:102A80004FF0FF3070BD2A4631460068FFF7DDFF8A
:102A9000021EF5DB6368A81A0344AA426360F1D101
:102AA0000020BDE87040FFF759BF37B502AD0224E2
:102AB00045F8040D20462946ABBE04462046FFF7E4
:102AC0003DFF03B030BD000038B50546FFF71CFFE1
:102AD000044630B903F00AFA092303604FF0FF30CF
:102AE00038BD013D012D09D8094B9A681B699A42EE
:102AF00004D14FF0FF3303600020F1E72068FFF7B7
:102B0000D4FF0028ECD14FF0FF332360E8E700BF8B
:102B1000400200200D4B196810B5024609B90C4956
:102B200019601868694602448A4206D809490A4C65
:102B30000968A14208D08A4206D903F0D7F90C23CC
:102B400003604FF0FF3010BD1A60FCE73002002038
:102B500080050020DC010020ADDEFECA70B50C4609
:102B6000FFF7D2FE064630B903F0C0F9092303602F
:102B70004FF0FF3070BD636843F4005363604FF45F
:102B8000806363640C2528463146ABBE0546284663
:102B9000FFF7D4FE431C1CBF20610020EAE70B4670
:102BA00010B50021044658221846FEF721F80146C8
:102BB0002046BDE81040FFF7D1BF38B50D460446AA
:102BC000582200212846FEF713F82046002100F085
:102BD00011F8431C04460BD06B6843F401436B604F
:102BE0002946FFF7BBFF05462046FFF76DFF2C4641
:102BF000204638BD2DE9F0472B4B96B082460E4655
:102C00000025984653F83540611C4FEAC50736D079
:102C10000135142DF6D103F069F9182303604FF044
:102C2000FF343CE0C6F3004440F20163B20748BF02
:102C300044F002041E4218BF44F00404330748BFA6
:102C400024F00404504648BF44F00804CDF800A026
:102C5000FDF7BEFACDE90140012420464946ABBE4E
:102C60000446002C06DB4744002348F835407B60CF
:102C70002C4614E02046FFF771FE04460FE006F4F0
:102C80002063B3F5206FE946CCD149465046FFF7A3
:102C900094FF0130C6D003F029F9112303602046C8
:102CA00016B0BDE8F08700BF400200202DE9F743D1
:102CB00007468846294800211546FFF79BFF2A460C
:102CC000044600213846FDF793FF631C15D02046CB
:102CD000FFF71AFE0C26814630464946ABBE064633
:102CE0003046FFF72BFE032802DD0338A84208DC3C
:102CF0002046FFF7E9FE4FF0FF34204603B0BDE861
:102D0000F08304220DEB02012046FFF745FE032865
:102D1000EEDD9DF80430532BEAD19DF80530482BA9
:102D2000E6D19DF80630462BE2D19DF80730422BC4
:102D3000DED1012241462046FFF748FE0028D7DBBE
:102D40002A4639462046FFF727FE05462046FFF76C
:102D5000BBFE2846FFF7F2FD0446CEE7976C00085D
:102D600037B50A4D0A4C0021012201A829602260D2
:102D7000FFF79CFF002807DD9DF8043003F00102F7
:102D800003F002032A60236003B030BDE00100209D
:102D9000E401002010B5044C2268002A01DAFFF794
:102DA000DFFF206810BD00BFE40100202DE9F04FD7
:102DB00085B0DFF8B090CDF804900323002403938E
:102DC0000DF104080294012528464146ABBE054694
:102DD000204E214A356023464FF0FF31144642F819
:102DE00033100133142BFAD1FFF7D4FF1B4DD0B1B0
:102DF0004FF0030A0423CDF804900127CDF80CA06E
:102E0000029338464146ABBE8346154BCDF804903D
:102E1000C3F800B00823CDF80CA002933846414611
:102E2000ABBE07462F602B68013302BF0C4B1B68FB
:102E30002B603368236000266660FFF7ABFF30B17C
:102E4000074B1B68C4E902362B68C4E9043605B099
:102E5000BDE8F08F3802002040020020340200203C
:102E60003C020020AD6C000870B5FFF74DFD092550
:102E7000044620B903F03AF80560204670BD2846A4
:102E80002146ABBE0446012CF7D003F02FF80024F6
:102E90000646132528462146ABBE05463560ECE7BD
:102EA000084B094A1B6810B5A2FB03230446980986
:102EB00000F0A6FA214600224FF0FF3000F05EFA43
:102EC000002010BD08000020D34D621008B50B4B48
:102ED0001A6842F400721A601A6842F480621A603A
:102EE0001A6842F480721A60032000F035FA00205C
:102EF000FFF7D6FF02F032FE002008BD003C024082
:102F0000024A136801331360704700BFE4020020D7
:102F1000014B1868704700BFE4020020002800F051
:102F20008E80F8B5036C0446002B7ED0236CDB0644
:102F300004D50023012084F83C30F8BD226C4F49B1
:102F400023684F4D22F4885222F0020242F002021E
:102F500022644A6822F440324A604A686068024348
:102F60004A6058682169A768E66820F48070586054
:102F70005A6842EA01225A60586820F0407058604E
:102F80005968A06A39435960996821F400619960D1
:102F90009A68A84242EA06029A6052D09968E56AA5
:102FA00021F0706199609A6810439860996821F0E7
:102FB000405199609A682A439A609968A569206A85
:102FC00021F0020199609A6842EA45029A605A68C3
:102FD00000283FD122F400625A60DA6AE569276B63
:102FE000666922F47002DA62D86A013D40EA05504F
:102FF000D862986820F400709860996841EA472187
:103000009960996821F4806199609A68002042EA89
:1030100086229A606064236C23F0030343F001036B
:103020002364002384F83C30F8BD436480F83C30CE
:1030300002F070FA236CDB063FF57BAF7EE70120E0
:1030400070479A6822F070629A609A6822F0405243
:103050009A60B2E742F400625A605A6822F4604211
:103060005A604FF4604191FAA1F1626A5868B1FA6E
:1030700081F1013A8A4002435A60AEE700230140E1
:103080000100000F10B490F83C3083B00022012BF7
:10309000019255D0026893680121DB0780F83C104B
:1030A00014D42A4B2A4C1B689168A4FB03439B0C45
:1030B00003EB430341F0010191600193019B2BB1AC
:1030C000019B013B0193019B002BF9D19368DC0725
:1030D00025D5036C23F4E06323F0010343F48073EC
:1030E00003645368590505D5036C23F4405343F436
:1030F00080530364036C13F480531CBF436C23F0B0
:103100000603436400246FF02201124B80F83C4018
:1031100011605B68DB0607D00F4B9A4204D0002099
:1031200003B05DF8044B7047906810F04050F6D142
:10313000936843F08043936003B05DF8044B70479D
:10314000022003B05DF8044B704700BF0800002068
:1031500083DE1B43002301400020014003689A687E
:10316000520502D59B68DA0540D470B50D46044679
:10317000FFF7CEFE06466B1C226825D11368980720
:10318000FCD56FF012031360236C43F400732364C7
:10319000936813F0405F15D1A3699BB9D36A13F408
:1031A000700F02D093685B050CD4236C23F48073FA
:1031B0002364206C10F4805004D1236C43F001038D
:1031C000236470BD002070BD13689907D9D425B160
:1031D000FFF79EFE801BA842CDD9236C002243F04E
:1031E0000403236484F83C200320EAE7036C0022F4
:1031F00043F02003036480F83C200120704700BFA7
:103200000368D86C704700BFF0B490F83C3082B0CF
:103210000022012B019200F095800D688A680368F6
:103220000124092DAFB280F83C4029D81C6905EB78
:1032300045064FF0070C0CFA06FC24EA0C041C614E
:103240001C6902FA06F626431E614E68062E06EB3E
:1032500086022AD8596B053A1F24944021EA0401BA
:103260005963596B07FA02F20A435A63374A934289
:103270002DD0002380F83C30184602B0F0BC7047D7
:1032800007EB4706DC681E3E4FF0070C0CFA06FC05
:1032900024EA0C04DC60DC6802FA06F62643DE60F1
:1032A0004E68062E06EB8602D4D90C2E35D8A2F134
:1032B00023041F211A6BA14022EA01021A63196B31
:1032C00007FA04F20A431A63204A9342D1D1122D1D
:1032D00031D0A5F11003012BCBD81D4A5368102D16
:1032E00043F400035360C4D11A4B02F1467202F555
:1032F0002E321B6802F28332A2FB03239B0C03EBEA
:1033000083035B000193019B002BB2D0019B013B27
:103310000193019B002BF9D1ABE7A2F141011F24DE
:10332000DA6A8C4022EA0402DA62DC6A07FA01F205
:103330002243DA629AE7D2F8043343F48003C2F8F6
:10334000043396E7022002B0F0BC70470020014031
:103350000023014008000020074AD3684FF6FF0110
:103360000B40000243F0BF6300F4E06043F400331D
:103370000343D360704700BF00ED00E0184BDB68EB
:10338000C3F3022330B4C3F10705042D03F1040491
:1033900028BF0425062C19D9033B4FF0FF349C406D
:1033A00022EA04044FF0FF32AA4021EA020101FAA6
:1033B00003F2224312010028D2B20ADB00F160407E
:1033C00000F5614080F8002330BC7047002423469C
:1033D000E8E7044B00F00F0003441A7630BC704756
:1033E00000ED00E0FCEC00E000F01F0101234009CB
:1033F000024A8B4042F82030704700BF00E100E0F5
:103400000138B0F1807F0ED2084B10B4084C5860E0
:10341000F02084F823000022072110469A601960EA
:103420005DF8044B70470120704700BF10E000E0DA
:1034300000ED00E088B1037910B503F0FF02044607
:103440003BB1002302210122217118462361227120
:1034500010BD427102F0B0F8F3E70120704700BFE1
:10346000F8B54479DDF818C0012C57D01746056827
:1034700002220E4602710121044641712A68F6B902
:1034800080682D49C163DFF8C0E02C49C0F840E0F6
:1034900042F48052BCF1040FC1642A6049D0BCF1EF
:1034A000080F43D0BCF1000F32D00022296841F44C
:1034B000005CC5F800C0394600F066F91DE0C06840
:1034C0001F49C163DFF884E01E49C0F840E042F0C4
:1034D0008052BCF1040FC1642A6024D0BCF1080FF3
:1034E0001ED0BCF1000F16D00022296841F0005C0C
:1034F000C5F800C0394600F047F92268012310687A
:1035000003FA06F101430023116018466371F8BD08
:1035100005F10802CAE705F11402E6E70220F8BD4A
:1035200005F11C02E1E705F11802DEE705F11002E2
:10353000BCE705F10C02B9E795350008B93500087C
:103540002536000841360008A93500083536000840
:10355000036810B51A6804464FF48050884022EA88
:1035600000021A601A680120884022EA00021A60EC
:1035700031B9A06800F04AF938B90123237110BDB0
:10358000E06800F043F90028F7D00423237110BD50
:10359000704700BF10B5846B2046FFF7F9FF012389
:1035A000237110BD704700BF08B5806BFFF7FAFFAD
:1035B00008BD00BF704700BF10B5846B236943F09E
:1035C000040323612046FFF7F5FF0123237110BD9B
:1035D0004379012B1DD0022370B403710468D1E933
:1035E000003640F6FE7521689540334321EA050117
:1035F00093400B4323602368C02101FA02F223EABF
:1036000002020121002322600171437170BC18463F
:103610007047022210467047704700BF704700BFD6
:10362000704700BF10B5846B2046FFF7F5FF0123FC
:10363000237110BD08B5806BFFF7F0FF08BD00BF18
:1036400010B5846B236943F0040323612046FFF720
:10365000E7FF0123237110BDF8B50446FFF758FCBE
:10366000002C54D00222236884F835201A680021E7
:1036700022F0010284F8341005461A6005E0FFF7D5
:1036800047FC401B05283BD823681A68D107F6D4AD
:10369000D4E90126D4E90351324360691F682A4303
:1036A000D4E906650A430243216A344832432A4377
:1036B0000A43616A3840042942EA000229D01A60AC
:1036C0005A6922F007021143DAB22D485961103AC3
:1036D000A0FB021212092B4923F47F73895CE16578
:1036E00023F00303032A88BF04333F228A400125C5
:1036F0000021A36508469A60616584F83550F8BDDD
:10370000032320226265184684F83530F8BD012075
:10371000F8BDD4E90B5129430A43A06A1A605A69DB
:1037200040F0040122F0070211436EB9012821D0B4
:1037300001D30228C8D1EA01C6D50123402262651F
:10374000184684F83530F8BDB6F5005F04D002287D
:10375000F3D90328B8D1EEE70328B5D801A252F86F
:1037600020F000BF3B370008373700083B37000820
:1037700075370008B5F1C07FA6D1DEE73F8010F0B5
:10378000ABAAAAAAB0690008F0B490F83440012CA2
:1037900039D090F83540866D0125AC4280F8345020
:1037A0002BD104680227002580F83570456525680F
:1037B000876825F48025402F256063600ABFA260DA
:1037C000A160E160C16D18BFE2603F238B40026CD5
:1037D000B360236843F016032360636943F08003FA
:1037E00063611AB1236843F008032360236843F040
:1037F000010323600020F0BC7047002380F83430C0
:10380000F0BC022070470220F0BC704770B504463F
:10381000866DFFF77DFB94F83530022B06D08022B1
:103820000023626584F83430012070BD2368216C68
:103830001A6822F016021A605A6922F080020546C0
:103840005A6131B31A6822F008021A601A6822F02D
:1038500001021A6005E0FFF75BFB401B05280FD84B
:1038600023681B6813F00103F5D1E16D3F228A4004
:103870000121B260184684F8343084F8351070BDE8
:10388000202200230320626584F8343084F8350058
:1038900070BDA26C002AD5D1D8E700BFF0B583B0C7
:1038A0000023876D0193C36D3D68654908229A40E6
:1038B0002A4204460E6803D001680868400759D4BC
:1038C000604A9A402A4203D021684969080674D4A4
:1038D0005D4A9A402A4203D021680968890766D464
:1038E00010229A402A4203D02168086800074BD46E
:1038F00020229A402A4214D021680868C00610D5B8
:10390000BA6094F83520052A63D00B6813F4802F31
:103910000B687ED0190340F18980E36B0BB1204620
:103920009847636D23B3636DDA071AD505232268C0
:1039300084F835301368454923F00103A1FB0616CE
:103940001360B60A02E01368DB0704D5019B01335C
:10395000B3420193F7D90022012384F8342084F87C
:103960003530E36C23B1204603B0BDE8F040184782
:1039700003B0F0BD086820F004000860BA60626D12
:1039800042F0010262659BE7BA600A6812F4802F78
:103990000A6818D1D20503D40A6822F008020A6026
:1039A000226C002AA4D020469047E36DA0E7BA60BD
:1039B000626D42F00402626592E7BA60626D42F0A5
:1039C0000202626584E71103EAD5A26C002AEAD1FB
:1039D0008EE70A68206C22F016020A604A6922F01B
:1039E00080024A6138B30A6822F008020A603F2266
:1039F000216D02FA03F300200122BB6084F8340039
:103A000084F835200029B3D0204603B0BDE8F0404B
:103A1000084713F4807380D10A68012022F0100255
:103A20000A6084F8343084F8350076E7636C002B44
:103A30007FF475AF75E7A26C002AD4D1D7E700BF39
:103A4000080000200100800004008000B5814E1BAA
:103A50002DE9F04FDFF830C2DFF83082D1F800E016
:103A600083B0002503E00135102D00F09A8001237A
:103A7000AB400EEA0304A342F5D14E6826F0100ACB
:103A8000BAF1020F00F090804FEA45090322D0F806
:103A900000B002FA09F2D24306F0030702EA0B0B68
:103AA00007FA09F70AF1FF3A47EA0B07BAF1010FE3
:103AB000076040F29F80C7688B683A4003FA09F3B9
:103AC0001343C360F300CED500230193D8F84430EC
:103AD00043F48043C8F84430D8F8443025F003025A
:103AE00002F1804203F4804302F59C32019305F019
:103AF0000307019BD2F80890BF000F23BB4029EABF
:103B0000030A5B4B984224D003F58063984200F08F
:103B10008480584B984200F08780574B984200F0C1
:103B20008A80564B984200F08D80554B984200F0A9
:103B30009080544B984200F09380DFF854914845B0
:103B40000CBF4FF007094FF0080909FA07F74AEAD6
:103B5000070AC2F808A0DCF80030E243F70354BFBC
:103B600013402343CCF80030DCF80430B70354BFD3
:103B700013402343CCF80430DCF80830F70254BF7C
:103B800013402343CCF80830DCF80C30B60205F1C2
:103B9000010554BF13402343102DCCF80C307FF4A3
:103BA00066AF03B0BDE8F08F4FEAD50900EB890995
:103BB00005F00707D9F82020BF004FF00F0B0BFAD4
:103BC00007FB22EA0B0A0A69BA4042EA0A02C9F86C
:103BD00020204FEA45090322D0F800A002FA09F29A
:103BE000D24306F0030702EA0A0A07FA09F747EA8E
:103BF0000A070760876807EA020ACF6807FA09F729
:103C000047EA0A078760D0F804A0C6F300172AEA3B
:103C10000303AF401F4347604DE74FF0010909FA26
:103C200007F74AEA070A94E74FF0020909FA07F78B
:103C30004AEA070A8DE74FF0030909FA07F74AEA4B
:103C4000070A86E74FF0040909FA07F74AEA070A64
:103C50007FE74FF0050909FA07F74AEA070A78E70C
:103C60004FF0060909FA07F74AEA070A71E700BFA9
:103C70000000024000080240000C02400010024018
:103C80000014024000180240003C0140003802408D
:103C9000001C02400369194214BF01200020704734
:103CA00002B9090481617047044A5169014200D197
:103CB000704708B5506101F079F808BD003C01403B
:103CC00000285CD090F83D3070B503F0FF02044648
:103CD000002B4FD02268324D242384F83D301368E6
:103CE00023F00103136000F0B9FBD4E900312D4A41
:103CF000A2FB0062920CA9425A6025D84900B0FB91
:103D0000F1F0C0F30B01013203291A6298BF0420BD
:103D1000D4E90725D4E90361D86142EA0500D4E972
:103D2000052531432A4318609960DA60196800223A
:103D300041F00101202519601046226484F83D50AD
:103D4000226384F83E2070BD4FF49675164E05FB35
:103D500002F2A6FB02529209A56801321A6285B9E5
:103D600001EB4101B0FBF1F0C0F30B02AAB140F44A
:103D70000040CDE780F83C2001F0ACFDAAE701202F
:103D8000704701EB810101EB8101B0FBF1F0C0F361
:103D90000B0212B140F44040BAE70120B8E700BF7F
:103DA000A086010083DE1B43D34D6210002875D02E
:103DB0002DE9F84390F83D30044603F0FF02002B54
:103DC00067D02168022284F83D2004F10C00CB6901
:103DD000A1C823F47B6323F00F03CB6197420A62EF
:103DE000CE6954D0E36900280CBF4FF0200C4FF08F
:103DF000400C012B7CD03F4B5A685B68520203F0A9
:103E00003F034CBF3C4A3D4AB2FBF3F2394BD3F877
:103E100084E0D3F88430CEF3881E02FB0EF2C3F3A5
:103E20000273B2FBF3F2B5F5007F0CBF120AB2FBCE
:103E3000FCF202EB82025300314AB3FBF7F3053385
:103E4000A2FB0323DB085F08BA1EFD2A03F0010C66
:103E50004BD90227D4E901E24EEA000CD4F81880CD
:103E6000D4F820904CF4006C4CEA020C4CEA080C9C
:103E70003D434CEA0606B9F1010F0D62CE610FD049
:103E800000200123206484F83D30BDE8F88300233E
:103E9000E0E780F83C2001F073FD92E701207047D5
:103EA000184E194DB1420CBF29464FF04021022651
:103EB000CD6925F47B6525F00F05CD613EF4007ECC
:103EC0000E62CD690CD14FF48073104340F4006052
:103ED00040EA080848EA050843EA0803CB61CFE74F
:103EE000BEF5807F08BF0023EFE747EA0C27B1E764
:103EF000064A98E70038024000127A000024F400D5
:103F0000CDCCCCCC00380040003400400080BB0059
:103F1000F0B50368DD0783B004462FD5A7498A684A
:103F200002F00C02042A00F095808A6802F00C026C
:103F3000082A00F08B806368B3F5803F00F0FD80B5
:103F4000B3F5A02F00F020819C4D2A6822F4803226
:103F50002A602A6822F480222A60002B40F0F28036
:103F6000FEF7D6FF064605E0FEF7D2FF801B642869
:103F700000F2F6802B689B03F6D423689F072BD5AD
:103F80008E4A916811F00C0F6FD0916801F00C010E
:103F9000082967D0E368002B00F0E580884B874D47
:103FA00001221A60FEF7B4FF064605E0FEF7B0FFF7
:103FB000801B022800F2D4802B689807F6D5296868
:103FC000F82292FAA2F22369B2FA82F221F0F80101
:103FD00093400B432B6023681A0715D56369002BA8
:103FE00000F08A80774B754D01221A60FEF790FF32
:103FF000064605E0FEF78CFF801B022800F2B08029
:104000006B6F9F07F6D52368590738D4A269D2B1E0
:104010006A4DA96801F00C0108292DD0022A6A4ACC
:104020004FF00001116000F0DC80FEF771FF2C46BC
:10403000054605E0FEF76CFF401B022800F2908069
:1040400023689B01F6D4002003B0F0BD4A685002FB
:104050007FF571AF594A126891038FD56268002AC3
:104060008CD109E05268560294D4544A12689507DC
:1040700052D5E268012A4FD0012003B0F0BD4F4B6A
:10408000524D002201921A6C42F080521A641B6C4D
:1040900003F080530193019B2B6843F480732B60E2
:1040A000FEF736FF064604E0FEF732FF801B0228CB
:1040B00056D82B68DA05F7D5A368012B00F0D2801B
:1040C000052B6BD03D4D2A6F22F001022A672A6F23
:1040D00022F004022A67002B69D1FEF719FF41F292
:1040E0008836074604E0FEF713FFC01BB04237D8FE
:1040F0002B6F9807F7D489E7324A304D1360FEF7EB
:1041000007FF064604E0FEF703FF801B022827D8BE
:104110006B6F9807F7D476E7284DF821286891FA55
:10412000A1F12269B1FA81F120F0F8008A4002433E
:104130002A601A077FF568AF50E7204A136843F4F6
:1041400080331360FEF7E4FE1C4D064604E0FEF7E4
:10415000DFFE801B642803D82B689A03F7D50CE791
:10416000032003B0F0BD164A144D1360FEF7D0FED5
:10417000064604E0FEF7CCFE801B0228F0D82B6830
:104180009907F7D4236827E70C4B1A6842F480227A
:104190001A601A6842F480321A60D3E7074B1A6F2C
:1041A00042F004021A671A6F42F001021A67FEF722
:1041B000AFFE024D074641F288360EE0003802405D
:1041C00000004742800E47426000474200700040B6
:1041D000FEF79EFEC01BB042C2D82B6F9B07F7D5DF
:1041E00014E7FEF795FE064604E0FEF791FE801BFD
:1041F0000228B5D82B689901F7D447F6C07696FA0D
:10420000A6F64FF44032B6FA86F692FAA2F24FF0D2
:104210007061B2FA82F091FAA1F1D4E90972D4E99D
:10422000073C5208E46A43EA0C0307FA06F6013A2F
:104230008240B1FA81F1334304FA01F113430C4A8D
:104240000C4C0B4301216B601160FEF761FE0546CB
:1042500004E0FEF75DFE401B022881D823689A0126
:10426000F7D5F0E6034A136F43F0010313679EE7A7
:104270006000474200380240194A936803F00C037B
:10428000042B2BD0082B27D15168536801F03F0134
:1042900013F4800F536847F6C07292FAA2F0B0FA96
:1042A00080F003EA020323FA00F314BF0D480E481E
:1042B000B0FBF1F000FB03F0094B4FF440325B68B8
:1042C00092FAA2F2B2FA82F203F44033D3400133FD
:1042D0005B00B0FBF3F0704703487047014870473C
:1042E0000038024000127A000024F400574A136894
:1042F00003F00F038B4208D2CBB21370136803F0A4
:104300000F038B4201D00120704703689A072DE903
:10431000F04106D54E4C8568A26822F0F0022A438F
:10432000A260DF0705460C4626D54268012A00F048
:104330008480931E012B464B1B687BD9990728D597
:10434000434EB36823F003031343B360FEF7E0FD6D
:104350006B68012B074641F288384FD0022B58D0AA
:10436000032B05D160E0FEF7D3FDC01B40456AD8A2
:10437000B36813F00C0FF6D1344A136803F00F033F
:10438000A34209D9E3B21370136803F00F03A342E9
:1043900002D00120BDE8F0812B685A0706D52C49D0
:1043A000E8688A6822F4E05202438A601B0707D556
:1043B000274A2969936823F4604343EAC103936061
:1043C000FFF75AFF224B0146F0229B6892FAA2F2B5
:1043D000B2FA82F203F0F003D3401E481E4AC35CD7
:1043E000002021FA03F31360FEF75AFD0020BDE818
:1043F000F081FEF78DFDC01B404524D8B36803F063
:104400000C03042BF5D1B7E7FEF782FDC01B404536
:1044100019D8B36803F00C03082BF5D1ACE7FEF70D
:1044200077FDC01B40450ED8B36803F00C030C2B7E
:10443000F5D1A1E7980183D4ABE7054B1B689E0338
:104440003FF57EAFA5E70320A4E700BF003C024094
:1044500000380240B869000808000020084B4FF4FB
:10446000E0529B6892FAA2F2B2FA82F203F4E053AD
:10447000D3400449044ACB5C1068D840704700BF61
:1044800000380240B869000808000020F0B5054671
:104490000068C30783B05CD410F0020001D103B000
:1044A000F0BD4C4B4C4C002201921A6C42F08052F1
:1044B0001A641B6C03F080530193019B236843F43F
:1044C00080732360FEF724FD064604E0FEF720FD1E
:1044D000801B02283AD82368D905F7D53D49EB68F7
:1044E0000A6F12F4407203F4407010D082420ED072
:1044F0000B6F3A4A23F440730124002014601060CB
:104500000B670B6FDA0713D4EB6803F44070B0F558
:10451000407F54D02F498A6822F4F8128A602D4ACD
:10452000116FC3F30B030B430020136703B0F0BDFF
:104530000C46FEF7EDFC41F288360746236F9B07D9
:10454000E2D4FEF7E5FCC01BB042F7D9032003B06C
:10455000F0BD234B1F4C00221A60FEF7D9FC064623
:1045600004E0FEF7D5FC801B0228EFD823681F016A
:10457000F7D447F6C07393FAA3F34FF0E041B3FAD0
:1045800083F291FAA1F1D5E90130B1FA81F100FA93
:1045900001F19340124A0F4E0B430121C4F88430BD
:1045A0001160FEF7B5FC044604E0FEF7B1FC001B09
:1045B0000228CBD833681801F7D528686CE705487E
:1045C000826823F0704122F4F81221F440710A430A
:1045D0008260A4E70038024000700040400E47426D
:1045E00068004742002858D090F8393070B503F081
:1045F000FF020446B3B32368354DE06861680222C8
:1046000084F83920AB421A6849D0B3F1804F52D0B8
:10461000A5F57C45AB422AD005F58065AB4226D096
:1046200005F58065AB4222D005F57845AB421ED03A
:1046300005F57055AB4213D005F58065AB420FD040
:1046400005F58065AB420BD0A5F59835AB4207D098
:1046500005F58065AB4203D005F58065AB4232D1EC
:1046600025692DE080F8382001F0CCFBC3E7A56870
:10467000266922F070022A43164D22F4407232431A
:10468000AB421A60D862996201D162691A63012251
:104690005A61002084F8392070BD01207047A66857
:1046A000256922F07002324322F440722A431A60D4
:1046B000D8629962E9E7A668256922F07002324360
:1046C00022F440722A431A60D8629962DFE700BF81
:1046D00000000140000401400168022210B480F88B
:1046E00039200A680124034622430A60002083F827
:1046F00039405DF8044B70470368DA6842F0010204
:10470000DA601A6842F001021A600020704700BFA8
:10471000704700BF002858D090F8393070B503F0CA
:10472000FF020446B3B32368354DE0686168022296
:1047300084F83920AB421A6849D0B3F1804F52D087
:10474000A5F57C45AB422AD005F58065AB4226D065
:1047500005F58065AB4222D005F57845AB421ED009
:1047600005F57055AB4213D005F58065AB420FD00F
:1047700005F58065AB420BD0A5F59835AB4207D067
:1047800005F58065AB4203D005F58065AB4232D1BB
:1047900025692DE080F83820FFF7BAFFC3E7A56848
:1047A000266922F070022A43164D22F440723243E9
:1047B000AB421A60D862996201D162691A63012220
:1047C0005A61002084F8392070BD01207047A66826
:1047D000256922F07002324322F440722A431A60A3
:1047E000D8629962E9E7A668256922F0700232432F
:1047F00022F440722A431A60D8629962DFE700BF50
:10480000000001400004014003680122186A02FA16
:1048100001F120EA010010B418621A6A0A4C11432F
:10482000A34219620AD0094A934207D01A685DF878
:10483000044B42F0010200201A6070475A6C42F4A7
:1048400000425A64F2E700BF00000140000401404A
:1048500090F83830012B00F0D280F0B5022301240B
:1048600080F8384080F839300C2A36D8DFE802F07A
:10487000073535356C3535359A3535353D000368A6
:10488000D1F808E01D6A0F68774E25F001051D621A
:104890001A6AD3F804C09C6922F0020224F073045F
:1048A000B34242EA0E0244EA070400F0AA806F4DC8
:1048B000AB4200F0A6804D68C3F804C09C615D6304
:1048C0001A629C690D6944F008049C61996921F0A1
:1048D000040199619A692A439A610023012280F8B0
:1048E000392080F838301846F0BD0368D1F808C088
:1048F0001D6A0F685C4E25F480551D621A6A5D685A
:10490000DC6922F4005224F4E644B34242EA0C3259
:1049100044EA072400F0928006F58066B34200F076
:104920008D804E685D60DC611E641A62DC690D6911
:1049300044F40064DC61D96921F48061D961DA69E9
:1049400042EA0522DA61C8E70368D1F808E01D6A87
:104950000F68454E25F010051D621A6AD3F804C091
:104960009C6922F0200224F4E644B34242EA0E128B
:1049700044EA072453D03D4DAB4250D04D68C3F8B4
:1049800004C09C619D631A629C690D6944F40064D3
:104990009C61996921F4806199619A6942EA0522D2
:1049A0009A619AE70368D1F808E01D6A0F682E4EF5
:1049B00025F480751D621A6AD3F804C0DC6922F4FC
:1049C000007224F07304B34242EA0E2244EA070460
:1049D0003AD0264DAB4237D04D68C3F804C0DC61F5
:1049E000DD631A62DC690D6944F00804DC61D96991
:1049F00021F00401D961DA692A43DA616DE7022006
:104A00007047D1E90556CF6822F008022CF4407CAB
:104A10003A43354322F0040245EA0C0C4BE7D1E956
:104A20000556CF6822F080022CF4406C42EA07124F
:104A3000354322F040024CEA850C9FE74E6925F48D
:104A4000804545EA86156CE7D1E90556CF6822F422
:104A500000622CF4405C42EA0722354322F4806273
:104A60004CEA051CB8E700BF00000140000401400B
:104A700090F83830012B67D002220368F0B480F838
:104A800039209A680C6822F47F4222F077020125CF
:104A9000402C80F838509A6000F0938018D9702C20
:104AA0007FD02BD9B4F5805F76D0B4F5005F1CD1F0
:104AB000D1E90152CC6899682A4342EA042221F4E0
:104AC0007F410A439A609A6842F480429A600CE0FF
:104AD000102C42D02FD9202C38D0302C05D19A68F8
:104AE00022F0700242F037029A600023012280F81F
:104AF000392080F83830F0BC18467047502C33D03D
:104B0000602CF2D11C6A4D68CE6824F010041C623F
:104B100099691A6A21F4704122F0A00242EA051252
:104B200041EA063199611A629A6822F0700242F0F5
:104B300067029A60D9E7002CD7D19A6822F07002F8
:104B400042F007029A60D0E7022070479A6822F08C
:104B5000700242F027029A60C7E79A6822F070025A
:104B600042F017029A60C0E71D6A1E6A4C68CF685F
:104B700026F001061E629A6925F00A0122F0F00271
:104B800042EA071221439A6119629A6822F0700280
:104B900042F057029A60A8E79A6822F007029A60EA
:104BA000A3E7D1E90152CC6899682A4342EA04227A
:104BB00021F47F410A439A609A6842F077029A6032
:104BC00093E71D6A1E6A4C68CF6826F001061E62D4
:104BD0009A6925F00A0122F0F00242EA0712214305
:104BE0009A6119629A6822F0700242F047029A6054
:104BF0007BE700BF704700BF704700BF704700BF32
:104C0000704700BF03681A69910710B5044602D5C2
:104C1000DA6892075FD41A69500702D5DA6851073B
:104C200046D41A69120702D5DA6810072ED41A6919
:104C3000D20602D5DA68D00618D41A69D10702D58F
:104C4000DA68D2075DD41A69100602D5DA6811064F
:104C50005FD41A69520602D5DA68500661D41A691F
:104C6000910602D5DA68920643D410BD6FF01002A7
:104C70001A61DB69082213F4407F2276204664D053
:104C8000FFF7BAFF002223682276D6E76FF008020A
:104C90001A61DB69042299072276204652D1FFF778
:104CA000A9FF2046FFF7AAFF002223682276BEE76D
:104CB0006FF004021A619B69022213F4407F22768E
:104CC00020463CD1FFF796FF2046FFF797FF0022D2
:104CD00023682276A5E76FF002021A619B69012220
:104CE0009B07027625D0FFF787FF002223682276F4
:104CF00091E76FF0200220461A61BDE8104000F0F5
:104D000051B86FF001021A61204600F083F8236861
:104D100099E76FF080021A61204600F045F8236899
:104D200097E76FF040021A612046FFF769FF23689A
:104D300095E7FFF75FFF2046FFF760FFD5E7FFF736
:104D40005BFFC4E7FFF758FFAEE7FFF753FF2046CE
:104D5000FFF754FF96E700BF90F83830012B1ED0C4
:104D600002460220136870B482F839005C6824F0AF
:104D70007004D1E900565C60586828435860986810
:104D800020F08000986099680024012531439960E3
:104D9000204682F8395082F8384070BC70470220B3
:104DA000704700BF704700BF704700BF70B5144D1B
:104DB000144B154E0024284622464FF480511C7097
:104DC000FEF76EFF284601224FF48041FEF768FF90
:104DD0000E4B0C22194630465C60FFF739FD304619
:104DE0000C21FFF711FD284622464FF40051FEF733
:104DF00057FF21460648BDE87040FEF7A9BB00BF3B
:104E0000000C024010030020C8040020F40200201F
:104E1000BC0300200C4B02681B689A4210D00B4A5E
:104E200053880A339BB2538053889BB2B3F57A7F81
:104E300005D100235380938801339BB29380704740
:104E4000034B01225A74EAE704050020E80200201F
:104E5000080200202DE9F04FC548DFF84083C54C1B
:104E600083B0FEF7E7FAC448FFF736FC0023C348D7
:104E7000A8F80430A8F80230A8F80430FFF73CFC8A
:104E8000637C002BFCD00023BD4EDFF81493BD4D96
:104E9000BD4F63746169DFF80CB341F26F739942DF
:104EA00000F25682637C012B00F0F581627C0023C6
:104EB0002B60002A40F0F981012300E00346627C68
:104EC000581C002AFAD0D4E9060203FB01FE013186
:104ED0007044B0FBF1F0C4E905104FF0000E9A42A7
:104EE0002B6084F811E038BFE3617268934238BFE9
:104EF00073603B78052BD0D8DFE813F0A000560193
:104F0000B000F80052000600B8F802309BB22BB98E
:104F100098F80730013BDBB288F8073098F8073083
:104F200003F0FF0233B94FF480519848FEF7B8FE02
:104F300001233B7001219648FEF7ACFED4E9022321
:104F4000012894F901C014BF6FF01D001E204FF618
:104F5000F67111FB0C0114BF4FF0FF3C4FF0010C38
:104F600012EB010A43EBE17B52465B46642AC4E93B
:104F7000022373F1000384F800C0C0F2A781642209
:104F80000023C4E90223012184F801C02174002216
:104F90004FF480517D48FEF783FE02233B7079E792
:104FA00000224FF400517948FEF77AFE0021704844
:104FB000FEF7CEFA01224FF480517448FEF770FEDE
:104FC00001217348FEF766FED4E90223012894F913
:104FD00001C014BF6FF01D001E204FF6F67111FBCB
:104FE0000C0114BF4FF0FF3C4FF0010C12EB010A13
:104FF00043EBE17B52465B46642AC4E9022373F12A
:10500000000384F800C080F258816FF062004FF016
:10501000FF315B4682458B4180F2F2814FF0FF33D6
:105020006FF06302C4E90223002384F801C02374F3
:105030001422052388F807203B702BE78021554870
:10504000FEF728FE012803467FF424AF00224FF428
:1050500080414E483B70FEF723FE1BE701214C4880
:10506000FEF718FED4E90223012894F901C014BF09
:105070006FF01D001E204FF6F67111FB0C0114BFDE
:105080004FF0FF3C4FF0010C12EB010A43EBE17BC8
:1050900052465B46642AC4E9022373F1000384F894
:1050A00000C080F20A816FF062004FF0FF315B4672
:1050B00082458B4180F2B9814FF0FF336FF063027C
:1050C000C4E90223002384F801C0237403230122CE
:1050D0004FF400512D483B70FEF7E2FD0021009196
:1050E00080232D4A2248FEF7BBF9D3E6B8F80230F8
:1050F0009BB22BB998F80630013BDBB288F806303A
:1051000098F8062002F0FF0B002A00F0F38001213E
:105110001F48FEF7BFFDD4E90223012894F901C01E
:1051200014BF6FF01D001E204FF6F67111FB0C012D
:1051300014BF4FF0FF3C4FF0010C12EB010A43EBA0
:10514000E17B52465B46642AC4E9022373F1000303
:1051500084F800C0C0F2E98064220023C4E902237D
:10516000012184F801C0217404233B7092E600BF42
:10517000BC03002008020020400500200405002098
:1051800000000020F002002010030020000C02406C
:105190000000024000080240C8690008E802002040
:1051A000F4020020B46C00084FF0000B5A46602354
:1051B0004FF40051A048C9F8003088F807B0C9F88A
:1051C00008B0C9F810B0FEF76BFD59469B48FEF7D2
:1051D000BFF9B6F900309A499A48B3F5006FA4BFF9
:1051E0005B421BB208331BB283EAE37CACEBE37C8B
:1051F0000C223380C9F804C0FFF72AFB0C21914828
:10520000FFF702FB01219048FEF744FDD4E9022399
:10521000012894F901C014BF6FF01D001E204FF645
:10522000F67111FB0C0114BF4FF0FF3C4FF0010C65
:1052300012EB010A43EBE17B52465B46642AC4E968
:10524000022373F1000384F800C060DB64220023B2
:10525000C4E90223012184F801C021740C22784999
:1052600078484FF0000BC9F804B0FFF7F1FA0C21B1
:105270007448FFF7C9FA7548FDF704FF0821734821
:10528000FDF76CFF002800F0B1805B46022288F831
:1052900006303A70FEE5584600F080FF627C616996
:1052A00000232B60002A3FF407AE0131A26961613F
:1052B000B2FBF1F26374A26117E6642200230121BC
:1052C00084F801C0C4E902232174E3E56FF06200B1
:1052D0004FF0FF315B4682458B4180F29F806FF03B
:1052E00063024FF0FF33002184F801C0C4E90223B8
:1052F0002174CFE55A464FF400514F48FEF7D0FCD9
:1053000059464E48FEF724F901233B70C2E56FF081
:1053100062004FF0FF315B4682458B41DFDB237C2F
:1053200084F801C0012B99D0B4E56FF062004FF012
:10533000FF315B4682458B4169DA6FF063024FF0C3
:10534000FF33002184F801C0C4E902232174A1E5E0
:1053500000224FF400513848FEF7A2FC00213748E4
:10536000FEF7F6F800250C2235493648C9F80450F6
:10537000FFF76EFA0C213348FFF746FA2A464FF43E
:1053800080512D48FEF78CFC2A464FF400512A48E4
:10539000FEF786FC2A464FF480412748FEF780FC42
:1053A000656907EE905AB8EE677AF2EE047A67EE16
:1053B000277A17EE900AFBF7C7F80022244BFBF779
:1053C00045FA02460B462348294600F05FFEE16994
:1053D000214800F05BFEA169204800F057FE71688B
:1053E0001F4803B0BDE8F04F00F050BE1748FDF76E
:1053F00007FF1C4BA3FB0023DB080533DBB245E7AB
:10540000237C84F801C0002B3FF412AE42E5237CDC
:1054100084F801C0012B7FF43DADA5E6237C84F820
:1054200001C0012B7FF436ADB1E5237C84F801C0C7
:10543000002B3FF44BAE2DE5000C0240BC030020D6
:10544000F4020020C80400200000024014030020E1
:1054500000408F40D06C0008F46C0008106D00080C
:105460002C6D00081F85EB5108B50A2000F026FEC0
:10547000084800F093FE084800F090FE0421074819
:1054800000F004FEFFF7E6FC054800F087FE002070
:1054900008BD00BF486D0008686D0008806D0008F9
:1054A000906D000810B5184B184A1A6084B04FF47C
:1054B00080324FF00071164C5A6099600022012131
:1054C00018469C621A6100929A611A62DA62DA6086
:1054D0001A63CDE901220392D9615961FDF71EFDDE
:1054E00070B9062401220023694607480293CDE9DA
:1054F0000042FDF789FE08B100F02EFB04B010BD9C
:1055000000F02AFBEDE700BF14030020002001405B
:105510000100000F10B50168154A88B000239142C0
:10552000CDE90333CDE90533079301D008B010BDB1
:1055300002F58C320193516C0E4841F48071516434
:10554000516C01F48071019101990293136B43F046
:1055500001031363136B03F001030293402203233F
:1055600003A9029CCDE90323FEF772FA08B010BD2F
:10557000002001400000024010B50D480D4B0360B3
:1055800082B00023CDE90033FDF754FF68B9002352
:10559000242469461A460648CDE90043FEF718F868
:1055A00008B100F0D9FA02B010BD00F0D5FAEEE76C
:1055B000BC0300200074004070B50268264B88B020
:1055C00000249A42CDE90344CDE90544079401D073
:1055D00008B070BD03F5E23301941A6C1F4D42F020
:1055E00000521A641A6C02F000520192019A02945D
:1055F0001A6B42F001021A631B6B03F00103029362
:10560000102303A90393064603231548029A049323
:10561000FEF71EFA134929604FF0606240234FF4F1
:1056200080604FF400616A60AB604FF400524FF449
:10563000807328612846EC60C5E90844C5E9051275
:10564000EB61FEF709F818B9B560AE6308B070BD3C
:1056500000F082FAF8E700BF007400405C0300200D
:10566000000002408860024010B582B000240F4B59
:1056700001941A6B42F400121A631B6B03F40013BB
:105680002246214601930F20019BFDF777FE0F2054
:10569000FDF7AAFE224621461020FDF76FFE1020DE
:1056A00002B0BDE81040FDF79FBE00BF00380240C9
:1056B0002DE9F04F00248DB0CDE90744CDE9094430
:1056C0006C4B01940B941A6BDFF8BCA1DFF8BC8122
:1056D000694FDFF8BC9142F010021A631A6B02F0B6
:1056E00010020192019A02941A6B42F004021A63AA
:1056F0001A6B02F004020292029A03941A6B42F0AF
:1057000080021A631A6B02F080020392039A0494D7
:105710001A6B42F001021A631A6B02F00102049242
:10572000049A05941A6B42F002021A631A6B02F093
:1057300002020592059A06941A6B42F008021A6357
:105740001B6B03F008030693224650460821069B74
:10575000FEF7A6FA012240461146FEF7A1FA2246BC
:10576000384647F21001FEF79BFA0125082307A9E6
:105770005046CDE90735CDE90944FEF769F907A997
:1057800040460226CDE90755CDE90944FEF760F908
:1057900007A94846CDE907540996FEF759F9A02212
:1057A00007A94846052307920B93CDE908640A949C
:1057B000FEF74EF907A9042330480793CDE90844C2
:1057C000FEF746F907A9384647F210030793CDE9DB
:1057D00008540A94FEF73CF9294B09954FF0800BC9
:1057E00007A94046CDE907B3FEF732F907A94846B5
:1057F0004FF400730793CDE90844FEF729F94846B2
:1058000007A94FF4E0520A2307920B93CDE90864ED
:105810000A94FEF71DF94FF4A052404607A906234B
:1058200007920B93CDE908640A94FEF711F920233F
:1058300007A938460793CDE90844FEF709F9384629
:1058400007A90995CDE907B4FEF702F90D4B0796B4
:1058500007A95046CDE90834FEF7FAF8224621465A
:105860001720FDF78BFD1720FDF7BEFD0DB0BDE83D
:10587000F08F00BF00380240000C024000040240DC
:105880000000211000001210001002400008024029
:10589000000002400C4B0D4A10B54FF480410C4CF7
:1058A0001A60184600225C601961C3E90222C3E94C
:1058B0000522C3E90722FEF703FA00B910BDBDE8CF
:1058C000104000F049B900BFD00300200054004050
:1058D000A086010070B50268174B88B000249A4278
:1058E000CDE90344CDE90544079401D008B070BD6B
:1058F000124D01942B6B124843F002032B632B6B68
:1059000003F0020301934FF41072122303920493E5
:105910000122042303A90793019E0592FEF798F83C
:1059200002942B6C43F400132B642B6C03F40013D0
:105930000293029B08B070BD005400400038024042
:10594000000402400C4B0D4A10B54FF400711A6070
:105950004FF40054002218465C6159601961C3E994
:105960000222C3E906221A62FEF720FA00B910BD2E
:10597000BDE8104000F0F0B884040020003800407A
:105980002DE9F0410268364B88B000249A42CDE9F7
:105990000344CDE90544079402D008B0BDE8F08186
:1059A00003F5003300941A6C2E4D42F480421A64C1
:1059B0001A6C02F480420092009A01941A6B42F031
:1059C00004021A631A6B02F004020192019A029413
:1059D0001A6B42F002021A631B6B03F0020302937C
:1059E000052748234FF0020803A906461E48029ADD
:1059F00003930797CDF81080FEF72AF84FF4A053D1
:105A000003A91A4807970393CDF81080CDE9054400
:105A1000FEF71EF8164A2A6040234FF480604FF4C8
:105A2000006C4FF400574FF480710422AB60286182
:105A3000012328466C60EC602C62C5E90B44C5E983
:105A400005C7E961C5E90923FDF706FE20B97563BD
:105A5000AE6308B0BDE8F08100F07EF8F7E700BF64
:105A600000380040240400200008024000040240E6
:105A70007060024070B5002498B0CDE90E44CDE9C5
:105A80001044CDE90844CDE90A44CDE90444224A52
:105A90000194079403940694116C204B41F08051BB
:105AA0001164126C02F080520192019A02941A68F9
:105AB00042F480421A601B6803F48043029301267B
:105AC0004FF48033CDE90C634FF4800208230225A4
:105AD000139214934FF4A87207230CA802991295FD
